{
    "contractName": "Lottery",
    "abi": [
        {
            "inputs": [
                {
                    "internalType": "uint256",
                    "name": "_winningGuess",
                    "type": "uint256"
                }
            ],
            "stateMutability": "nonpayable",
            "type": "constructor"
        },
        {
            "inputs": [],
            "name": "addTokens",
            "outputs": [],
            "stateMutability": "payable",
            "type": "function"
        },
        {
            "inputs": [],
            "name": "closeGame",
            "outputs": [
                {
                    "internalType": "address",
                    "name": "",
                    "type": "address"
                }
            ],
            "stateMutability": "view",
            "type": "function"
        },
        {
            "inputs": [],
            "name": "getPrice",
            "outputs": [
                {
                    "internalType": "uint256",
                    "name": "",
                    "type": "uint256"
                }
            ],
            "stateMutability": "nonpayable",
            "type": "function"
        },
        {
            "inputs": [
                {
                    "internalType": "uint256",
                    "name": "_userGuess",
                    "type": "uint256"
                }
            ],
            "name": "makeGuess",
            "outputs": [],
            "stateMutability": "nonpayable",
            "type": "function"
        },
        {
            "inputs": [],
            "name": "makeUser",
            "outputs": [],
            "stateMutability": "nonpayable",
            "type": "function"
        },
        {
            "inputs": [],
            "name": "owner",
            "outputs": [
                {
                    "internalType": "address payable",
                    "name": "",
                    "type": "address"
                }
            ],
            "stateMutability": "view",
            "type": "function"
        },
        {
            "inputs": [
                {
                    "internalType": "uint256",
                    "name": "",
                    "type": "uint256"
                }
            ],
            "name": "userAddresses",
            "outputs": [
                {
                    "internalType": "address",
                    "name": "",
                    "type": "address"
                }
            ],
            "stateMutability": "view",
            "type": "function"
        },
        {
            "inputs": [
                {
                    "internalType": "address",
                    "name": "_user",
                    "type": "address"
                }
            ],
            "name": "userGuesses",
            "outputs": [
                {
                    "internalType": "uint256[]",
                    "name": "",
                    "type": "uint256[]"
                }
            ],
            "stateMutability": "view",
            "type": "function"
        },
        {
            "inputs": [
                {
                    "internalType": "address",
                    "name": "_user",
                    "type": "address"
                }
            ],
            "name": "userTokens",
            "outputs": [
                {
                    "internalType": "uint256",
                    "name": "",
                    "type": "uint256"
                }
            ],
            "stateMutability": "view",
            "type": "function"
        },
        {
            "inputs": [
                {
                    "internalType": "address",
                    "name": "",
                    "type": "address"
                }
            ],
            "name": "users",
            "outputs": [
                {
                    "internalType": "address",
                    "name": "userAddress",
                    "type": "address"
                },
                {
                    "internalType": "uint256",
                    "name": "tokensBought",
                    "type": "uint256"
                }
            ],
            "stateMutability": "view",
            "type": "function"
        },
        {
            "inputs": [],
            "name": "winnerAddress",
            "outputs": [
                {
                    "internalType": "address payable",
                    "name": "",
                    "type": "address"
                }
            ],
            "stateMutability": "view",
            "type": "function"
        },
        {
            "inputs": [],
            "name": "winningGuess",
            "outputs": [
                {
                    "internalType": "bytes32",
                    "name": "",
                    "type": "bytes32"
                }
            ],
            "stateMutability": "view",
            "type": "function"
        }
    ],
    "bytecode": "608060405234801561001057600080fd5b506040516108f33803806108f383398101604081905261002f9161006e565b600280546001600160a01b0319163317905560408051602081018390520160408051601f19818403018152919052805160209091012060035550610087565b60006020828403121561008057600080fd5b5051919050565b61085d806100966000396000f3fe6080604052600436106100a75760003560e01c806398da61af1161006457806398da61af14610194578063a87430ba146101a9578063d18a524a14610208578063d5f4f0b31461027a578063ed498fa814610282578063ed7a4e0b146102bb57600080fd5b806322666da6146100ac578063445a5fa3146100ce578063502c9bd514610104578063786b844b1461013c5780638da5cb5b1461015157806398d5fdca14610171575b600080fd5b3480156100b857600080fd5b506100cc6100c7366004610709565b6102d0565b005b3480156100da57600080fd5b506100ee6100e9366004610722565b61033e565b6040516100fb9190610752565b60405180910390f35b34801561011057600080fd5b5061012461011f366004610709565b6103ab565b6040516001600160a01b0390911681526020016100fb565b34801561014857600080fd5b506101246103d5565b34801561015d57600080fd5b50600254610124906001600160a01b031681565b34801561017d57600080fd5b506101866103ff565b6040519081526020016100fb565b3480156101a057600080fd5b50600354610186565b3480156101b557600080fd5b506101e96101c4366004610722565b600060208190529081526040902080546001909101546001600160a01b039091169082565b604080516001600160a01b0390931683526020830191909152016100fb565b34801561021457600080fd5b506100cc33600081815260208190526040812080546001600160a01b031990811684178255600191820183905581548083018355919092527fb10e2d527612073b26eecdfd717e6a320cf44b4afac2b0732d9fcbe2b7fa0cf60180549091169091179055565b6100cc610505565b34801561028e57600080fd5b5061018661029d366004610722565b6001600160a01b031660009081526020819052604090206001015490565b3480156102c757600080fd5b506101246105b0565b620f4240811080156102f357503360009081526020819052604090206001015415155b6102fc57600080fd5b33600081815260208181526040822060028101805460018181018355918552928420909201859055928252909101805491610336836107ac565b919050555050565b6001600160a01b0381166000908152602081815260409182902060020180548351818402810184019094528084526060939283018282801561039f57602002820191906000526020600020905b81548152602001906001019080831161038b575b50505050509050919050565b600181815481106103bb57600080fd5b6000918252602090912001546001600160a01b0316905081565b6002546000906001600160a01b031633146103ef57600080fd5b60006103f96105b0565b92915050565b6002546000906001600160a01b0316331461041957600080fd5b60006104236105b0565b6002549091506001600160a01b039081169082160361047b576002546040516001600160a01b03909116904780156108fc02916000818181858888f19350505050158015610475573d6000803e3d6000fd5b506104fe565b60006104886002476107c3565b6040519091506001600160a01b0383169082156108fc029083906000818181858888f193505050501580156104c1573d6000803e3d6000fd5b506002546040516001600160a01b03909116904780156108fc02916000818181858888f193505050501580156104fb573d6000803e3d6000fd5b50505b4791505090565b60008061051a670de0b6b3a7640000346107c3565b905060005b60015481101561057b57336001600160a01b031660018281548110610546576105466107e5565b6000918252602090912001546001600160a01b031603610569576001925061057b565b80610573816107fb565b91505061051f565b50816001036105ac5733600090815260208190526040812060010180548392906105a6908490610814565b90915550505b5050565b6000805b6001548110156106f8576000806000600184815481106105d6576105d66107e5565b60009182526020808320909101546001600160a01b0390811684528382019490945260409283019091208251606081018452815490941684526001810154848301526002810180548451818502810185018652818152929486019383018282801561066057602002820191906000526020600020905b81548152602001906001019080831161064c575b505050505081525050905060005b8160400151518110156106e35760035482604001518281518110610694576106946107e5565b60200260200101516040516020016106ae91815260200190565b60405160208183030381529060405280519060200120036106d157505192915050565b806106db816107fb565b91505061066e565b505080806106f0906107fb565b9150506105b4565b50506002546001600160a01b031690565b60006020828403121561071b57600080fd5b5035919050565b60006020828403121561073457600080fd5b81356001600160a01b038116811461074b57600080fd5b9392505050565b6020808252825182820181905260009190848201906040850190845b8181101561078a5783518352928401929184019160010161076e565b50909695505050505050565b634e487b7160e01b600052601160045260246000fd5b6000816107bb576107bb610796565b506000190190565b6000826107e057634e487b7160e01b600052601260045260246000fd5b500490565b634e487b7160e01b600052603260045260246000fd5b60006001820161080d5761080d610796565b5060010190565b808201808211156103f9576103f961079656fea264697066735822122072111d658d65cd6dd71acdb78c64c5235f6883cb9f913bf8070b0f41b47400f464736f6c63430008130033",
    "sourcePath": "c:/NTU_Assignments/Blockchain dev projects/Lottery-DApp/Lottery-DApp/contracts/Lottery.sol",
    "compiler": {
        "name": "solc",
        "version": "0.8.19+commit.7dd6d404"
    },
    "functionHashes": {
        "addTokens()": "d5f4f0b3",
        "closeGame()": "786b844b",
        "getPrice()": "98d5fdca",
        "makeGuess(uint256)": "22666da6",
        "makeUser()": "d18a524a",
        "owner()": "8da5cb5b",
        "userAddresses(uint256)": "502c9bd5",
        "userGuesses(address)": "445a5fa3",
        "userTokens(address)": "ed498fa8",
        "users(address)": "a87430ba",
        "winnerAddress()": "ed7a4e0b",
        "winningGuess()": "98da61af"
    },
    "gasEstimates": {
        "creation": {
            "codeDepositCost": "428200",
            "executionCost": "infinite",
            "totalCost": "infinite"
        },
        "external": {
            "addTokens()": "infinite",
            "closeGame()": "infinite",
            "getPrice()": "infinite",
            "makeGuess(uint256)": "73217",
            "makeUser()": "77964",
            "owner()": "2426",
            "userAddresses(uint256)": "4659",
            "userGuesses(address)": "infinite",
            "userTokens(address)": "2599",
            "users(address)": "4696",
            "winnerAddress()": "infinite",
            "winningGuess()": "2292"
        }
    }
}