{
    "contractName": "Lottery",
    "abi": [
        {
            "inputs": [
                {
                    "internalType": "address",
                    "name": "_randomNumberGenerator",
                    "type": "address"
                }
            ],
            "stateMutability": "nonpayable",
            "type": "constructor"
        },
        {
            "inputs": [],
            "name": "addTokens",
            "outputs": [],
            "stateMutability": "payable",
            "type": "function"
        },
        {
            "inputs": [],
            "name": "closeGame",
            "outputs": [
                {
                    "internalType": "address",
                    "name": "",
                    "type": "address"
                }
            ],
            "stateMutability": "view",
            "type": "function"
        },
        {
            "inputs": [],
            "name": "getPrice",
            "outputs": [
                {
                    "internalType": "uint256",
                    "name": "",
                    "type": "uint256"
                }
            ],
            "stateMutability": "nonpayable",
            "type": "function"
        },
        {
            "inputs": [
                {
                    "internalType": "uint256",
                    "name": "",
                    "type": "uint256"
                }
            ],
            "name": "guessCandidates",
            "outputs": [
                {
                    "internalType": "bytes32",
                    "name": "",
                    "type": "bytes32"
                }
            ],
            "stateMutability": "view",
            "type": "function"
        },
        {
            "inputs": [
                {
                    "internalType": "uint256",
                    "name": "_userGuess",
                    "type": "uint256"
                }
            ],
            "name": "makeGuess",
            "outputs": [],
            "stateMutability": "nonpayable",
            "type": "function"
        },
        {
            "inputs": [],
            "name": "makeUser",
            "outputs": [],
            "stateMutability": "nonpayable",
            "type": "function"
        },
        {
            "inputs": [],
            "name": "owner",
            "outputs": [
                {
                    "internalType": "address payable",
                    "name": "",
                    "type": "address"
                }
            ],
            "stateMutability": "view",
            "type": "function"
        },
        {
            "inputs": [],
            "name": "reimburseTokens",
            "outputs": [],
            "stateMutability": "nonpayable",
            "type": "function"
        },
        {
            "inputs": [
                {
                    "internalType": "uint256",
                    "name": "",
                    "type": "uint256"
                }
            ],
            "name": "userAddresses",
            "outputs": [
                {
                    "internalType": "address",
                    "name": "",
                    "type": "address"
                }
            ],
            "stateMutability": "view",
            "type": "function"
        },
        {
            "inputs": [
                {
                    "internalType": "address",
                    "name": "_user",
                    "type": "address"
                }
            ],
            "name": "userGuesses",
            "outputs": [
                {
                    "internalType": "uint256[]",
                    "name": "",
                    "type": "uint256[]"
                }
            ],
            "stateMutability": "view",
            "type": "function"
        },
        {
            "inputs": [
                {
                    "internalType": "address",
                    "name": "_user",
                    "type": "address"
                }
            ],
            "name": "userTokens",
            "outputs": [
                {
                    "internalType": "uint256",
                    "name": "",
                    "type": "uint256"
                }
            ],
            "stateMutability": "view",
            "type": "function"
        },
        {
            "inputs": [
                {
                    "internalType": "address",
                    "name": "",
                    "type": "address"
                }
            ],
            "name": "users",
            "outputs": [
                {
                    "internalType": "address",
                    "name": "userAddress",
                    "type": "address"
                },
                {
                    "internalType": "uint256",
                    "name": "tokensBought",
                    "type": "uint256"
                }
            ],
            "stateMutability": "view",
            "type": "function"
        },
        {
            "inputs": [],
            "name": "winnerAddress",
            "outputs": [
                {
                    "internalType": "address payable",
                    "name": "",
                    "type": "address"
                }
            ],
            "stateMutability": "view",
            "type": "function"
        },
        {
            "inputs": [],
            "name": "winningGuess",
            "outputs": [
                {
                    "internalType": "bytes32",
                    "name": "",
                    "type": "bytes32"
                }
            ],
            "stateMutability": "view",
            "type": "function"
        }
    ],
    "bytecode": "60806040523480156200001157600080fd5b50604051620010913803806200109183398101604081905262000034916200029b565b600380546001600160a01b03199081163317909155600580546001600160a01b0384169216821790556040805163fc2a88c360e01b815290516000929163fc2a88c3916004808301926020929190829003018186803b1580156200009757600080fd5b505afa158015620000ac573d6000803e3d6000fd5b505050506040513d601f19601f82011682018060405250810190620000d29190620003b2565b60055460405163d8a4676f60e01b8152600481018390529192506000916001600160a01b039091169063d8a4676f9060240160006040518083038186803b1580156200011d57600080fd5b505afa15801562000132573d6000803e3d6000fd5b505050506040513d6000823e601f3d908101601f191682016040526200015c9190810190620002cb565b915050600a816000815181106200018357634e487b7160e01b600052603260045260246000fd5b60200260200101516200019791906200041e565b620001a4906001620003cb565b604051602001620001b791815260200190565b60408051601f19818403018152919052805160209091012060045560005b60018251620001e59190620003e6565b81101562000291576001600a83620001fe8484620003cb565b815181106200021d57634e487b7160e01b600052603260045260246000fd5b60200260200101516200023191906200041e565b6200023e906001620003cb565b6040516020016200025191815260200190565b60408051601f1981840301815291905280516020918201208254600181018455600093845291909220015580620002888162000400565b915050620001d5565b505050506200046b565b600060208284031215620002ad578081fd5b81516001600160a01b0381168114620002c4578182fd5b9392505050565b60008060408385031215620002de578081fd5b82518015158114620002ee578182fd5b602084810151919350906001600160401b03808211156200030d578384fd5b818601915086601f83011262000321578384fd5b81518181111562000336576200033662000455565b8060051b604051601f19603f830116810181811085821117156200035e576200035e62000455565b604052828152858101935084860182860187018b10156200037d578788fd5b8795505b83861015620003a157805185526001959095019493860193860162000381565b508096505050505050509250929050565b600060208284031215620003c4578081fd5b5051919050565b60008219821115620003e157620003e16200043f565b500190565b600082821015620003fb57620003fb6200043f565b500390565b60006000198214156200041757620004176200043f565b5060010190565b6000826200043a57634e487b7160e01b81526012600452602481fd5b500690565b634e487b7160e01b600052601160045260246000fd5b634e487b7160e01b600052604160045260246000fd5b610c16806200047b6000396000f3fe6080604052600436106100dd5760003560e01c806398d5fdca1161007f578063d18a524a11610059578063d18a524a1461026f578063d5f4f0b3146102e2578063ed498fa8146102ea578063ed7a4e0b1461032357600080fd5b806398d5fdca146101e657806398da61af146101fb578063a87430ba1461021057600080fd5b8063502c9bd5116100bb578063502c9bd514610164578063786b844b1461019c5780638b24d37f146101b15780638da5cb5b146101c657600080fd5b8063139c3374146100e257806322666da614610115578063445a5fa314610137575b600080fd5b3480156100ee57600080fd5b506101026100fd366004610ae5565b610338565b6040519081526020015b60405180910390f35b34801561012157600080fd5b50610135610130366004610ae5565b610359565b005b34801561014357600080fd5b50610157610152366004610ab7565b6103c5565b60405161010c9190610afd565b34801561017057600080fd5b5061018461017f366004610ae5565b610432565b6040516001600160a01b03909116815260200161010c565b3480156101a857600080fd5b5061018461045c565b3480156101bd57600080fd5b506101356104cb565b3480156101d257600080fd5b50600354610184906001600160a01b031681565b3480156101f257600080fd5b50610102610606565b34801561020757600080fd5b50600454610102565b34801561021c57600080fd5b5061025061022b366004610ab7565b600060208190529081526040902080546001909101546001600160a01b039091169082565b604080516001600160a01b03909316835260208301919091520161010c565b34801561027b57600080fd5b5061013533600081815260208190526040812080546001600160a01b03199081168417825560019182018390556002805492830181559092527f405787fa12a823e0f2b7631cc41b3ba8828b3321ca811111fa75cd3aa3bb5ace0180549091169091179055565b61013561071c565b3480156102f657600080fd5b50610102610305366004610ab7565b6001600160a01b031660009081526020819052604090206001015490565b34801561032f57600080fd5b506101846107ef565b6001818154811061034857600080fd5b600091825260209091200154905081565b600a8110801561037a57503360009081526020819052604090206001015415155b61038357600080fd5b336000818152602081815260408220600281018054600181810183559185529284209092018590559282529091018054916103bd83610b98565b919050555050565b6001600160a01b0381166000908152602081815260409182902060020180548351818402810184019094528084526060939283018282801561042657602002820191906000526020600020905b815481526020019060010190808311610412575b50505050509050919050565b6002818154811061044257600080fd5b6000918252602090912001546001600160a01b0316905081565b6003546000906001600160a01b031633146104be5760405162461bcd60e51b815260206004820152601e60248201527f4f6e6c79206f776e65722063616e20636c6f7365207468652067616d652e000060448201526064015b60405180910390fd5b6104c66107ef565b905090565b6003546001600160a01b031633146105255760405162461bcd60e51b815260206004820181905260248201527f4f6e6c79206f776e65722063616e207265696d627572736520746f6b656e732e60448201526064016104b5565b60005b6002548110156106035760006002828154811061055557634e487b7160e01b600052603260045260246000fd5b60009182526020808320909101546001600160a01b0316808352908290526040909120600181015491925081156105ed57600060018201556001600160a01b0383166108fc60646105a7856002610b79565b6105b19190610b59565b6105c390670de0b6b3a7640000610b79565b6040518115909202916000818181858888f193505050501580156105eb573d6000803e3d6000fd5b505b50505080806105fb90610baf565b915050610528565b50565b6003546000906001600160a01b0316331461062057600080fd5b600061062a6107ef565b6003549091506001600160a01b0380831691161415610682576003546040516001600160a01b03909116904780156108fc02916000818181858888f1935050505015801561067c573d6000803e3d6000fd5b50610705565b600061068f600247610b59565b6040519091506001600160a01b0383169082156108fc029083906000818181858888f193505050501580156106c8573d6000803e3d6000fd5b506003546040516001600160a01b03909116904780156108fc02916000818181858888f19350505050158015610702573d6000803e3d6000fd5b50505b61070d610965565b6107156109ec565b4791505090565b600080670de0b6b3a76400006002610735346064610b79565b61073f9190610b59565b6107499190610b59565b905060005b6002548110156107b957336001600160a01b03166002828154811061078357634e487b7160e01b600052603260045260246000fd5b6000918252602090912001546001600160a01b031614156107a757600192506107b9565b806107b181610baf565b91505061074e565b5081600114156107eb5733600090815260208190526040812060010180548392906107e5908490610b41565b90915550505b5050565b6000805b6002548110156109545760008060006002848154811061082357634e487b7160e01b600052603260045260246000fd5b60009182526020808320909101546001600160a01b039081168452838201949094526040928301909120825160608101845281549094168452600181015484830152600281018054845181850281018501865281815292948601938301828280156108ad57602002820191906000526020600020905b815481526020019060010190808311610899575b505050505081525050905060005b81604001515181101561093f57600454826040015182815181106108ef57634e487b7160e01b600052603260045260246000fd5b602002602001015160405160200161090991815260200190565b60405160208183030381529060405280519060200120141561092d57505192915050565b8061093781610baf565b9150506108bb565b5050808061094c90610baf565b9150506107f3565b50506003546001600160a01b031690565b60005b6002548110156106035760006002828154811061099557634e487b7160e01b600052603260045260246000fd5b600091825260208083209190910154604080518481528084018083526001600160a01b0390931680865293859052932092519193506109d79260020191610a57565b505080806109e490610baf565b915050610968565b60015415610a55576001600081548110610a1657634e487b7160e01b600052603260045260246000fd5b90600052602060002001546004819055506001600081548110610a4957634e487b7160e01b600052603260045260246000fd5b60009182526020822001555b565b828054828255906000526020600020908101928215610a92579160200282015b82811115610a92578251825591602001919060010190610a77565b50610a9e929150610aa2565b5090565b5b80821115610a9e5760008155600101610aa3565b600060208284031215610ac8578081fd5b81356001600160a01b0381168114610ade578182fd5b9392505050565b600060208284031215610af6578081fd5b5035919050565b6020808252825182820181905260009190848201906040850190845b81811015610b3557835183529284019291840191600101610b19565b50909695505050505050565b60008219821115610b5457610b54610bca565b500190565b600082610b7457634e487b7160e01b81526012600452602481fd5b500490565b6000816000190483118215151615610b9357610b93610bca565b500290565b600081610ba757610ba7610bca565b506000190190565b6000600019821415610bc357610bc3610bca565b5060010190565b634e487b7160e01b600052601160045260246000fdfea26469706673582212203dcd021aebb98fa3acbaa12260ffa6ef2f2b1d31b0c8d33d37180784539ac26764736f6c63430008040033",
    "sourcePath": "c:/NTU_Assignments/Blockchain dev projects/Lottery-DApp/Lottery-DApp/contracts/Lottery.sol",
    "compiler": {
        "name": "solc",
        "version": "0.8.4+commit.c7e474f2"
    },
    "functionHashes": {
        "addTokens()": "d5f4f0b3",
        "closeGame()": "786b844b",
        "getPrice()": "98d5fdca",
        "guessCandidates(uint256)": "139c3374",
        "makeGuess(uint256)": "22666da6",
        "makeUser()": "d18a524a",
        "owner()": "8da5cb5b",
        "reimburseTokens()": "8b24d37f",
        "userAddresses(uint256)": "502c9bd5",
        "userGuesses(address)": "445a5fa3",
        "userTokens(address)": "ed498fa8",
        "users(address)": "a87430ba",
        "winnerAddress()": "ed7a4e0b",
        "winningGuess()": "98da61af"
    },
    "gasEstimates": {
        "creation": {
            "codeDepositCost": "618800",
            "executionCost": "infinite",
            "totalCost": "infinite"
        },
        "external": {
            "addTokens()": "infinite",
            "closeGame()": "infinite",
            "getPrice()": "infinite",
            "guessCandidates(uint256)": "1988",
            "makeGuess(uint256)": "63062",
            "makeUser()": "67742",
            "owner()": "1126",
            "reimburseTokens()": "infinite",
            "userAddresses(uint256)": "2037",
            "userGuesses(address)": "infinite",
            "userTokens(address)": "1266",
            "users(address)": "2141",
            "winnerAddress()": "infinite",
            "winningGuess()": "1026"
        },
        "internal": {
            "resetGuesses()": "infinite",
            "resetWinningGuess()": "28412"
        }
    }
}