{
    "contractName": "VRFConsumer",
    "abi": [
        {
            "inputs": [
                {
                    "internalType": "uint64",
                    "name": "_subscriptionId",
                    "type": "uint64"
                }
            ],
            "stateMutability": "nonpayable",
            "type": "constructor"
        },
        {
            "inputs": [
                {
                    "internalType": "address",
                    "name": "have",
                    "type": "address"
                },
                {
                    "internalType": "address",
                    "name": "want",
                    "type": "address"
                }
            ],
            "name": "OnlyCoordinatorCanFulfill",
            "type": "error"
        },
        {
            "anonymous": false,
            "inputs": [
                {
                    "indexed": false,
                    "internalType": "uint256",
                    "name": "requestId",
                    "type": "uint256"
                },
                {
                    "indexed": false,
                    "internalType": "uint256[]",
                    "name": "randomWords",
                    "type": "uint256[]"
                }
            ],
            "name": "RequestFulfilled",
            "type": "event"
        },
        {
            "anonymous": false,
            "inputs": [
                {
                    "indexed": false,
                    "internalType": "uint256",
                    "name": "requestId",
                    "type": "uint256"
                },
                {
                    "indexed": false,
                    "internalType": "uint32",
                    "name": "numWords",
                    "type": "uint32"
                }
            ],
            "name": "RequestSent",
            "type": "event"
        },
        {
            "inputs": [
                {
                    "internalType": "uint256",
                    "name": "_requestId",
                    "type": "uint256"
                }
            ],
            "name": "getRequestStatus",
            "outputs": [
                {
                    "internalType": "bool",
                    "name": "fulfilled",
                    "type": "bool"
                },
                {
                    "internalType": "uint256[]",
                    "name": "randomWords",
                    "type": "uint256[]"
                }
            ],
            "stateMutability": "view",
            "type": "function"
        },
        {
            "inputs": [],
            "name": "lastRequestId",
            "outputs": [
                {
                    "internalType": "uint256",
                    "name": "",
                    "type": "uint256"
                }
            ],
            "stateMutability": "view",
            "type": "function"
        },
        {
            "inputs": [
                {
                    "internalType": "uint256",
                    "name": "requestId",
                    "type": "uint256"
                },
                {
                    "internalType": "uint256[]",
                    "name": "randomWords",
                    "type": "uint256[]"
                }
            ],
            "name": "rawFulfillRandomWords",
            "outputs": [],
            "stateMutability": "nonpayable",
            "type": "function"
        },
        {
            "inputs": [
                {
                    "internalType": "uint256",
                    "name": "",
                    "type": "uint256"
                }
            ],
            "name": "requestIds",
            "outputs": [
                {
                    "internalType": "uint256",
                    "name": "",
                    "type": "uint256"
                }
            ],
            "stateMutability": "view",
            "type": "function"
        },
        {
            "inputs": [],
            "name": "requestRandomWords",
            "outputs": [
                {
                    "internalType": "uint256",
                    "name": "requestId",
                    "type": "uint256"
                }
            ],
            "stateMutability": "nonpayable",
            "type": "function"
        },
        {
            "inputs": [
                {
                    "internalType": "uint256",
                    "name": "",
                    "type": "uint256"
                }
            ],
            "name": "s_requests",
            "outputs": [
                {
                    "internalType": "bool",
                    "name": "fulfilled",
                    "type": "bool"
                },
                {
                    "internalType": "bool",
                    "name": "exists",
                    "type": "bool"
                }
            ],
            "stateMutability": "view",
            "type": "function"
        }
    ],
    "bytecode": "60a06040527f474e34a077df58807dbe9c96d3c009b23b3c6d0cce433e59bbf5b34f823bc56c600455600580546001600160501b03191666050003000493e017905534801561004d57600080fd5b506040516108da3803806108da83398101604081905261006c916100f6565b7f8103b0a8a00be2ddc778e6e7eaa21791cd364625000000000000000000000000608052600580546a01000000000000000000003302600160501b600160f01b0319909116179055600180546001600160401b03909216600160a01b026001600160e01b031990921691909117738103b0a8a00be2ddc778e6e7eaa21791cd364625179055610124565b600060208284031215610107578081fd5b81516001600160401b038116811461011d578182fd5b9392505050565b60805160601c61079161014960003960008181610122015261016401526107916000f3fe608060405234801561001057600080fd5b50600436106100625760003560e01c80631fe543e3146100675780638796ba8c1461007c578063a168fa89146100a2578063d8a4676f146100e5578063e0c8628914610106578063fc2a88c31461010e575b600080fd5b61007a610075366004610603565b610117565b005b61008f61008a3660046105d3565b6101a4565b6040519081526020015b60405180910390f35b6100ce6100b03660046105d3565b60006020819052908152604090205460ff8082169161010090041682565b604080519215158352901515602083015201610099565b6100f86100f33660046105d3565b6101c5565b604051610099929190610709565b61008f6102b7565b61008f60035481565b336001600160a01b037f000000000000000000000000000000000000000000000000000000000000000016146101965760405163073e64fd60e21b81523360048201526001600160a01b037f00000000000000000000000000000000000000000000000000000000000000001660248201526044015b60405180910390fd5b6101a082826104a1565b5050565b600281815481106101b457600080fd5b600091825260209091200154905081565b600081815260208190526040812054606090610100900460ff1661021f5760405162461bcd60e51b81526020600482015260116024820152701c995c5d595cdd081b9bdd08199bdd5b99607a1b604482015260640161018d565b6000838152602081815260408083208151606081018352815460ff808216151583526101009091041615158185015260018201805484518187028101870186528181529295939486019383018282801561029857602002820191906000526020600020905b815481526020019060010190808311610284575b5050505050815250509050806000015181604001519250925050915091565b600554600090600160501b90046001600160a01b031633146102d857600080fd5b600154600480546005546040516305d3b1d360e41b815292830191909152600160a01b830467ffffffffffffffff166024830152640100000000810461ffff16604483015263ffffffff808216606484015266010000000000009091041660848201526001600160a01b0390911690635d3b1d309060a401602060405180830381600087803b15801561036a57600080fd5b505af115801561037e573d6000803e3d6000fd5b505050506040513d601f19601f820116820180604052508101906103a291906105eb565b60408051606081018252600080825260016020808401828152855184815280830187528587019081528785528483529590932084518154945161ffff1990951690151561ff001916176101009415159490940293909317835593518051959650929491936104169391850192910190610573565b5050600280546001810182556000919091527f405787fa12a823e0f2b7631cc41b3ba8828b3321ca811111fa75cd3aa3bb5ace0182905550600381905560055460408051838152660100000000000090920463ffffffff1660208301527fcc58b13ad3eab50626c6a6300b1d139cd6ebb1688a7cced9461c2f7e762665ee910160405180910390a190565b600082815260208190526040902054610100900460ff166104f85760405162461bcd60e51b81526020600482015260116024820152701c995c5d595cdd081b9bdd08199bdd5b99607a1b604482015260640161018d565b600082815260208181526040909120825161051b92600190920191840190610573565b5060008281526020819052604090819020805460ff19166001179055517ffe2e2d779dba245964d4e3ef9b994be63856fd568bf7d3ca9e224755cb1bd54d90610567908490849061072c565b60405180910390a15050565b8280548282559060005260206000209081019282156105ae579160200282015b828111156105ae578251825591602001919060010190610593565b506105ba9291506105be565b5090565b5b808211156105ba57600081556001016105bf565b6000602082840312156105e4578081fd5b5035919050565b6000602082840312156105fc578081fd5b5051919050565b60008060408385031215610615578081fd5b8235915060208084013567ffffffffffffffff80821115610634578384fd5b818601915086601f830112610647578384fd5b81358181111561065957610659610745565b8060051b604051601f19603f8301168101818110858211171561067e5761067e610745565b604052828152858101935084860182860187018b101561069c578788fd5b8795505b838610156106be5780358552600195909501949386019386016106a0565b508096505050505050509250929050565b6000815180845260208085019450808401835b838110156106fe578151875295820195908201906001016106e2565b509495945050505050565b821515815260406020820152600061072460408301846106cf565b949350505050565b82815260406020820152600061072460408301846106cf565b634e487b7160e01b600052604160045260246000fdfea26469706673582212205eb8988d7bb686cefcbbbee6bc41b0372899edfbcfd193a537d763e44954faa664736f6c63430008040033",
    "sourcePath": "c:/NTU_Assignments/Blockchain dev projects/Lottery-DApp/Lottery-DApp/contracts/Lottery.sol",
    "compiler": {
        "name": "solc",
        "version": "0.8.4+commit.c7e474f2"
    },
    "functionHashes": {
        "getRequestStatus(uint256)": "d8a4676f",
        "lastRequestId()": "fc2a88c3",
        "rawFulfillRandomWords(uint256,uint256[])": "1fe543e3",
        "requestIds(uint256)": "8796ba8c",
        "requestRandomWords()": "e0c86289",
        "s_requests(uint256)": "a168fa89"
    },
    "gasEstimates": {
        "creation": {
            "codeDepositCost": "387400",
            "executionCost": "infinite",
            "totalCost": "infinite"
        },
        "external": {
            "getRequestStatus(uint256)": "infinite",
            "lastRequestId()": "1072",
            "rawFulfillRandomWords(uint256,uint256[])": "infinite",
            "requestIds(uint256)": "1964",
            "requestRandomWords()": "infinite",
            "s_requests(uint256)": "1222"
        },
        "internal": {
            "fulfillRandomWords(uint256,uint256[] memory)": "infinite"
        }
    }
}